:100000007E0675B000758000743811B5740F11B597
:10001000740111B5740611B5748111B5900190E4A5
:1000200093B42402800511C2A380F420A3028005AA
:0F00300020A407803520A4128020BE000280EC9F
:10003F0075B000119E11837E0080E1BE010280DC4D
:10004F0075B0FF119811837E0180D1BE020280CC62
:0F005F0075B000119211837E0280C1BE0308E4C8
:0F006E00E580F4F5B080B6E4E580F4F5B0118CD0
:0F007D0011837E0380A87A7F7BFFDBFEDAFA22F5
:0F008C0090010011A42290016011A42290013074
:0F009B0011A42290021011A422748811B5E493CD
:0F00AA00B42402800511C2A380F422F590C2A1F4
:0F00B900C2A2D2A0C2A0118322F590D2A1C2A2EE
:0800C800D2A0C2A01183E422C2
:0801000053454E534F525324A6
:080130004653544152542024AF
:080160004653544F50202024A7
:080190005354415455533A2425
:080210004F4646202020202467
:00000001FF
